:1000000012C024C023C022C021C020C01FC01EC0F7
:100010001DC01CC01BC01AC019C018C017C016C014
:1000200015C014C013C011241FBECFE5D2E0DEBF3F
:10003000CDBF10E0A0E6B0E0E0ECF0E002C005903B
:100040000D92A836B107D9F70DD038C0D9CF80EDC1
:100050008ABB8AE287BB8BB38F728BBB88B38A6201
:1000600088BB0895F4DFE3E6F0E0A0E6B0E08BB3F0
:100070009081892B8BBB98B38D918095892388BB08
:100080002FEF89E698E1215080409040E1F700C0D1
:10009000000088B3ED0121979881892B88BB9BB321
:1000A0008081809589238BBB20E0A336B207F9F6C7
:1000B000319680E0E736F807C1F6D5CFF894FFCF48
:0800C0000220081040808000BE
:00000001FF
